:1000000003308A001B2B00000A108A100A11820795
:1000100028340C34013406340C346934FE346C3426
:1000200065346D34203479346134703400340A001E
:10003000283084008313000803192B280630F800A9
:10004000F701F70B2128F80B20287B30F700F70B7E
:100050002728800B1E2808002F18302886113128E9
:100060008615831686118312AF1838280612392890
:1000700006168316061283122F194028861241286D
:100080008616831686128312AF194828061349284C
:100090000617831606130000831206158316061131
:1000A0000230F700F70B5228552800008312061182
:1000B0008316061183120800B001831686150030DE
:1000C000831286190130B00483160616003083129D
:1000D000061A0130F7000310F70D7708B0048316F5
:1000E000861600308312861A0130F700F70DF70DDF
:1000F000FC30F7057708B00483160617003083122A
:10010000061B0130F700F70DF70DF70DF830F70576
:100110007708B0043008F8000800831606110610AE
:10012000861083120610831606108615061686168C
:100130000617831286148316861000008312061594
:1001400083160611000083125C207808AF000611A8
:100150008316061100008312061583160611B028B7
:10016000B128000083125C207808AE0006118316C7
:100170000611861106128612061383122F0EF7003F
:10018000F030F70577082E04F8007808AE00AE1FAF
:10019000CB2883169528AC08031DD0280610D1283B
:1001A000061483160610000083128610831686102C
:1001B0000000831206118316061183122D0EAE0065
:1001C0000F30AE052E08AF002C202D080F39AE00E1
:1001D000AF002C2008008316861106128612061323
:1001E000061106108610831206108316061083125D
:1001F00086108316861083120611831606110F309F
:100200008312A80018200130A3002308033C031C1C
:1002100011290330AF002C200530A8001820A30AB4
:1002200005290230AF002C200530A8001820A301BA
:100230002308033C031C252923080420A400AC0147
:100240002408AD008D20A30A18298A110A12312B27
:10025000290B2B292E294030AA002F29AA01013071
:100260002802AA072A088038AB00AC012B08AD0091
:100270008D2008002708073A031948290B3A03196B
:100280004D29063A03195529023A03195B296029B9
:100290000130A800A90028216529AC010130AD007A
:1002A0008D200230A800182065290130A8000230F6
:1002B000A90028216529AC011030AD008D206529E9
:1002C0000130AC002708AD008D200800831603170D
:1002D0008C170C140000000083128C080319892964
:1002E0000D080313A30003170F080313A40003173B
:1002F0000C080313A7003A21230803178D000313EA
:10030000240803178F008D0A03198F0A0313662927
:10031000031703138A110A12382BFF30A000323062
:10032000A80018208316081083120814211421082D
:10033000831687008312071CA2293230A8001820D8
:100340000330A000A1142108831687008312871CA4
:10035000AE293230A80018200630A000211521084F
:10036000831687008312071DBA293230A80018208F
:100370000930A000A1152108831687008312871D6C
:10038000C6293230A80018200A30A00083160810B1
:10039000831208103230A8001820831688108312A8
:1003A000881421142108831687008312071CDD2975
:1003B0003230A80018200830A000A11421088316AC
:1003C00087008312871CE9293230A80018200530E5
:1003D000A00021152108831687008312071DF52927
:1003E0003230A80018200230A000A1152108831681
:1003F00087008312871D002A3230A8001820A00130
:1004000083168810831288103230A80018208316B3
:1004100008118312081521142108831687008312FE
:10042000071C172A3230A80018200130A000A114A0
:100430002108831687008312871C232A1430A80002
:1004400018200430A000211521088316870083128C
:10045000071D2F2A3230A80018200730A000A11550
:100460002108831687008312871D3B2A3230A8009B
:1004700018200B30A00083160811831208113230A7
:10048000A8001820831688118312881521142108CA
:10049000831687008312071C522A3230A8001820C6
:1004A0000C30A000A1142108831687008312871C3A
:1004B0005E2A1430A80018200D30A0002115210854
:1004C000831687008312071D6A2A3230A80018207D
:1004D0000E30A000A1152108831687008312871D06
:1004E000762A3230A80018200F30A0008316881119
:1004F000831288113230A80018202008F8008A11D1
:100500000A12392B0B08A3008B13831603178C17C1
:100510000C140000000083120C087F390319C92A4B
:100520000313A40003170D080313A50003170F08F6
:100530000313A6002408A7003A21250803178D00FD
:100540000313260803178F0083168C170C14000062
:10055000000083120C0D0E0D7F390319C92A0313F5
:10056000A40003170D080313A50003170F080313B6
:10057000A6002408A7003A21250803178D000313BD
:10058000260803178F008D0A03198F0A0313852A83
:1005900003170313A31B8B178A110A12422B260879
:1005A000F80125020318D72A2508F700E32AF701E6
:1005B0000830A700A50DF70D260877020318F700ED
:1005C000F80DA70BDA2A080078082308A500643084
:1005D000A600CF227708A30078083030031DF72A41
:1005E000A41CFE2AA419FE2A241A2030FA2AA411D7
:1005F00024122414F8077808A7003A212308A5003C
:100600000A30A600CF227708A30078083030031DF7
:100610000F2BA419132B241C132B241A2030F8079A
:100620007808A7003A213030A3072308A7003A2111
:100630008A110A124B2BFF30A10083161F149F143E
:100640001F159F1107309C0083131F308305003056
:10065000860087008312A100F03083168800831281
:10066000EB280C3003178D0000308F000313662930
:100670008D297808A200173003178D0000308F00F5
:100680000313822A2208FF3C03194B2B2208A300E4
:0A0690001B30A400E42A382B63009D
:02400E00323F3F
:00000001FF
;PIC16F877A
;CRC=A5D4  CREATED="25-Oca-21 23:12"
